:020000040800F2
:10000000000002206D2B0008A5080008AB080008BE
:10001000B1080008B7080008BD080008000000008B
:10002000000000000000000000000000C3080008FD
:10003000D108000800000000DF0800084909000896
:10004000BD2B0008BD2B0008BD2B0008BD2B0008F0
:10005000BD2B0008BD2B000825090008BD2B00089A
:10006000BD2B0008BD2B0008BD2B0008BD2B0008D0
:10007000BD2B0008BD2B0008BD2B0008BD2B0008C0
:10008000BD2B0008BD2B0008BD2B0008BD2B0008B0
:10009000BD2B0008BD2B0008BD2B0008ED08000893
:1000A000BD2B0008BD2B0008BD2B0008BD2B000890
:1000B000BD2B0008BD2B0008BD2B0008BD2B000880
:1000C000BD2B0008BD2B0008BD2B0008BD2B000870
:1000D000BD2B0008BD2B0008BD2B0008BD2B000860
:1000E000BD2B0008BD2B0008BD2B0008BD2B000850
:1000F000BD2B0008BD2B0008BD2B0008BD2B000840
:10010000BD2B0008BD2B0008BD2B0008BD2B00082F
:10011000BD2B0008BD2B0008BD2B0008BD2B00081F
:10012000BD2B0008BD2B0008BD2B0008BD2B00080F
:10013000BD2B0008BD2B0008BD2B0008BD2B0008FF
:10014000BD2B0008BD2B0008BD2B0008BD2B0008EF
:10015000BD2B0008BD2B0008BD2B0008BD2B0008DF
:10016000BD2B0008BD2B0008BD2B0008BD2B0008CF
:10017000BD2B0008BD2B0008BD2B000800000000AF
:08018000BD2B0008BD2B000897
:1001880010B5054C237833B9044B13B10448AFF3C9
:1001980000800123237010BD080400200000000027
:1001A800342C000808B5034B1BB103490348AFF3CF
:1001B800008008BD000000000C040020342C00085A
:1001C80010F8012B11F8013B012A28BF9A42F7D0F9
:1001D800D01A704753B94AB9002908BF00281CBF74
:1001E8004FF0FF314FF0FF3000F074B9ADF1080C5B
:1001F8006DE904CE00F006F8DDF804E0DDE902233D
:1002080004B070472DE9F047089D04468E46002B40
:100218004DD18A42944669D9B2FA82F252B101FAB2
:1002280002F3C2F1200120FA01F10CFA02FC41EAC2
:10023800030E94404FEA1C48210CBEFBF8F61FFA47
:100248008CF708FB16E341EA034306FB07F19942E2
:100258000AD91CEB030306F1FF3080F01F81994295
:1002680040F21C81023E63445B1AA4B2B3FBF8F06F
:1002780008FB103344EA034400FB07F7A7420AD9F6
:100288001CEB040400F1FF3380F00A81A74240F21E
:1002980007816444023840EA0640E41B00261DB189
:1002A800D4400023C5E900433146BDE8F0878B42BE
:1002B80009D9002D00F0EF800026C5E9000130467D
:1002C8003146BDE8F087B3FA83F6002E4AD18B4257
:1002D80002D3824200F2F980841A61EB0303012001
:1002E8009E46002DE0D0C5E9004EDDE702B9FFDEED
:1002F800B2FA82F2002A40F09280A1EB0C014FEA98
:100308001C471FFA8CFE0126200CB1FBF7F307FBF4
:10031800131140EA01410EFB03F0884208D91CEB97
:10032800010103F1FF3802D2884200F2CB80434634
:10033800091AA4B2B1FBF7F007FB101144EA014413
:100348000EFB00FEA64508D91CEB040400F1FF31A2
:1003580002D2A64500F2BB800846A4EB0E0440EA90
:1003680003409CE7C6F12007B34022FA07FC4CEA99
:10037800030C20FA07F401FA06F31C43F9404FEA8C
:100388001C4900FA06F3B1FBF9F8200C1FFA8CFEA1
:1003980009FB181140EA014108FB0EF0884202FAF5
:1003A80006F20BD91CEB010108F1FF3A80F08880B6
:1003B800884240F28580A8F102086144091AA4B273
:1003C800B1FBF9F009FB101144EA014100FB0EFEF4
:1003D8008E4508D91CEB010100F1FF346CD28E4523
:1003E8006AD90238614440EA0840A0FB0294A1EBB4
:1003F8000E01A142C846A64656D353D05DB1B3EB11
:10040800080261EB0E0101FA07F722FA06F3F14040
:100418001F43C5E9007100263146BDE8F087C2F1E7
:100428002003D8400CFA02FC21FA03F3914001435F
:100438004FEA1C471FFA8CFEB3FBF7F007FB103698
:100448000B0C43EA064300FB0EF69E4204FA02F444
:1004580008D91CEB030300F1FF382FD29E422DD997
:10046800023863449B1B89B2B3FBF7F607FB1633CC
:1004780041EA034106FB0EF38B4208D91CEB01014C
:1004880006F1FF3816D28B4214D9023E6144C91ACC
:1004980046EA004638E72E46284605E70646E3E6DC
:1004A8001846F8E64B45A9D2B9EB020864EB0C0EE6
:1004B8000138A3E74646EAE7204694E74046D1E7F5
:1004C800D0467BE7023B614432E7304609E76444A3
:1004D800023842E7704700BF80B58CB000AF07F123
:1004E8001C0300221A605A609A60DA601A610023BD
:1004F800BB61924B1B6B914A43F0100313638F4B04
:100508001B6B03F01003BB61BB6900237B618B4B42
:100518001B6B8A4A43F004031363884B1B6B03F07D
:1005280004037B617B6900233B61844B1B6B834A1B
:1005380043F080031363814B1B6B03F080033B6123
:100548003B690023FB607D4B1B6B7C4A43F0010336
:1005580013637A4B1B6B03F00103FB60FB680023FA
:10056800BB60764B1B6B754A43F002031363734BF6
:100578001B6B03F00203BB60BB6800237B606F4BFF
:100588001B6B6E4A43F0080313636C4B1B6B03F041
:1005980008037B607B6800220821694800F02CFD75
:1005A80001220121674800F027FD00224FF4F8419D
:1005B800654800F021FD00224FF21001634800F069
:1005C8001BFD0823FB6101233B6200237B620023A0
:1005D800BB6207F11C031946594800F071FB01235F
:1005E800FB6101233B6200237B620023BB6207F1AE
:1005F8001C031946534800F063FB0823FB610223E0
:100608003B6200237B620023BB620523FB6207F188
:100618001C0319464B4800F053FB0123FB614FF4C0
:1006280090133B6200237B6207F11C03194648487C
:1006380000F046FB0423FB6100233B6200237B623E
:1006480007F11C031946404800F03AFB4FF4806359
:10065800FB6102233B6200237B620023BB6205230C
:10066800FB6207F11C031946374800F029FB4FF4D9
:10067800F843FB6101233B6200237B620023BB62DA
:1006880007F11C031946304800F01AFB4FF4C073F9
:10069800FB614FF488133B6201237B6207F11C0363
:1006A8001946274800F00CFB0123FB614FF40413A3
:1006B8003B6200237B6207F11C031946244800F0C3
:1006C800FFFA00220021062000F0C3FA062000F0FD
:1006D800DCFA00220121172000F0BBFA172000F0F5
:1006E800D4FA4FF21003FB6101233B6200237B62C3
:1006F8000023BB6207F11C031946144800F0E0FA16
:100708002023FB6100233B6200237B6207F11C036B
:1007180019460E4800F0D4FA0223FB614FF49013F7
:100728003B6200237B6207F11C031946044800F072
:10073800C7FA00BF3037BD4680BD00BF0038024051
:10074800001002400008024000040240000C024071
:100758000000024080B500AF00F00AF900F006F88A
:10076800FFF7BAFE01F052FEFEE7000080B594B034
:1007780000AF07F1200330220021184602F04EFA9C
:1007880007F10C0300221A605A609A60DA601A6155
:100798000023BB60284B1B6C274A43F0805313642B
:1007A800254B1B6C03F08053BB60BB6800237B6048
:1007B800224B1B68214A43F4804313601F4B1B687C
:1007C80003F480437B607B6801233B624FF48033F2
:1007D8007B620223BB634FF48003FB6304233B6407
:1007E800A8237B640223BB640423FB6407F1200372
:1007F800184600F01BFC0346002B01D000F020F83F
:100808000F23FB6002233B6100237B614FF4A0535D
:10081800BB614FF4A053FB6107F10C030521184697
:1008280000F07CFE0346002B01D000F009F800BF61
:100838005037BD4680BD00BF003802400070004000
:1008480080B400AF72B600BFFEE7000080B483B08A
:1008580000AF00237B60104B5B6C0F4A43F480436E
:1008680053640D4B5B6C03F480437B607B6800230F
:100878003B60094B1B6C084A43F080531364064BDA
:100888001B6C03F080533B603B6800BF0C37BD46D0
:100898005DF8047B704700BF0038024080B400AFA9
:1008A800FEE780B400AFFEE780B400AFFEE780B497
:1008B80000AFFEE780B400AFFEE780B400AF00BF32
:1008C800BD465DF8047B704780B400AF00BFBD46ED
:1008D8005DF8047B704780B400AF00BFBD465DF88B
:1008E800047B704780B400AF0B4B5B6903F0800357
:1008F800002B02D0084B80225A61074B5B6903F436
:100908008073002B03D0044B4FF480725A6100BFF0
:10091800BD465DF8047B7047003C014080B400AFE1
:10092800064B5B6903F00103002B02D0034B012245
:100938005A6100BFBD465DF8047B7047003C01402A
:1009480080B500AF00F066F800BF80BD80B400AF8E
:10095800064BD3F88830054A43F47003C2F8883050
:1009680000BFBD465DF8047B704700BF00ED00E0A6
:1009780080B500AF0E4B1B680D4A43F4007313603B
:100988000B4B1B680A4A43F480631360084B1B68CF
:10099800074A43F480731360032000F04FF90020E6
:1009A80000F008F8FFF752FF0023184680BD00BF8B
:1009B800003C024080B582B000AF7860124B1A68E4
:1009C800124B1B7819464FF47A73B3FBF1F3B2FB61
:1009D800F3F3184600F067F90346002B01D0012312
:1009E8000EE07B680F2B0AD8002279684FF0FF30A1
:1009F80000F02FF9064A7B681360002300E001230A
:100A080018460837BD4680BD0000002008000020B9
:100A18000400002080B400AF064B1B781A46064B32
:100A28001B681344044A136000BFBD465DF8047B8D
:100A3800704700BF080000202404002080B400AFE5
:100A4800034B1B681846BD465DF8047B704700BF22
:100A58002404002080B584B000AF7860FFF7EEFF73
:100A6800B8607B68FB60FB68B3F1FF3F05D00A4BB9
:100A78001B781A46FB681344FB6000BFFFF7DEFFD4
:100A88000246BB68D31AFA689A42F7D800BF00BF7B
:100A98001037BD4680BD00BF0800002080B485B077
:100AA80000AF78607B6803F00703FB600C4BDB68E2
:100AB800BB60BA684FF6FF031340BB60FB681A02BD
:100AC800BB68134343F0BF6343F40033BB60044A7D
:100AD800BB68D36000BF1437BD465DF8047B704720
:100AE80000ED00E080B400AF044BDB681B0A03F0A4
:100AF80007031846BD465DF8047B704700ED00E02B
:100B080080B483B000AF0346FB7197F90730002B20
:100B18000BDBFB7903F01F02074997F907305B09E4
:100B2800012000FA02F241F8232000BF0C37BD462D
:100B38005DF8047B704700BF00E100E080B483B03B
:100B480000AF03463960FB7197F90730002B0ADBC9
:100B58003B68DAB20C4997F907301201D2B20B445C
:100B680083F800230AE03B68DAB20849FB7903F00E
:100B78000F03043B1201D2B20B441A7600BF0C37A4
:100B8800BD465DF8047B704700E100E000ED00E041
:100B980080B489B000AFF860B9607A60FB6803F090
:100BA8000703FB61FB69C3F10703042B28BF042378
:100BB800BB61FB690433062B02D9FB69033B00E0E8
:100BC80000237B614FF0FF32BB6902FA03F3DA437B
:100BD800BB681A407B699A404FF0FF317B6901FA84
:100BE80003F3D9437B680B40134318462437BD46AB
:100BF8005DF8047B7047000080B582B000AF786074
:100C08007B68013BB3F1807F01D301230FE00A4ADF
:100C18007B68013B53600F214FF0FF30FFF78EFFD9
:100C2800054B00229A60044B07221A6000231846DD
:100C38000837BD4680BD00BF10E000E080B582B037
:100C480000AF78607868FFF729FF00BF0837BD4616
:100C580080BD80B586B000AF0346B9607A60FB738B
:100C680000237B61FFF73EFF78617A68B96878698D
:100C7800FFF78EFF024697F90F3011461846FFF727
:100C88005DFF00BF1837BD4680BD80B582B000AF9C
:100C98000346FB7197F907301846FFF731FF00BF8D
:100CA8000837BD4680BD80B582B000AF78607868EF
:100CB800FFF7A2FF034618460837BD4680BD00006F
:100CC80080B489B000AF7860396000237B6100236D
:100CD8003B610023BB610023FB616BE10122FB69DF
:100CE80002FA03F37B613B681B687A6913403B6136
:100CF8003A697B699A4240F05A813B685B6803F025
:100D08000303012B05D03B685B6803F00303022B48
:100D180030D17B689B68BB61FB695B00032202FAE8
:100D280003F3DB43BA691340BB613B68DA68FB69CC
:100D38005B0002FA03F3BA691343BB617B68BA69C3
:100D48009A607B685B68BB610122FB6902FA03F366
:100D5800DB43BA691340BB613B685B681B0903F05E
:100D68000102FB6902FA03F3BA691343BB617B68AA
:100D7800BA695A603B685B6803F00303032B17D01A
:100D88007B68DB68BB61FB695B00032202FA03F343
:100D9800DB43BA691340BB613B689A68FB695B0037
:100DA80002FA03F3BA691343BB617B68BA69DA6074
:100DB8003B685B6803F00303022B23D1FB69DA0865
:100DC8007B68083253F82230BB61FB6903F00703E4
:100DD8009B000F2202FA03F3DB43BA691340BB619D
:100DE8003B681A69FB6903F007039B0002FA03F3E7
:100DF800BA691343BB61FB69DA087B680832B969D1
:100E080043F822107B681B68BB61FB695B00032207
:100E180002FA03F3DB43BA691340BB613B685B68C2
:100E280003F00302FB695B0002FA03F3BA69134398
:100E3800BB617B68BA691A603B685B6803F440333E
:100E4800002B00F0B4800023FB60604B5B6C5F4AB2
:100E580043F4804353645D4B5B6C03F48043FB6055
:100E6800FB685B4AFB699B08023352F82330BB617D
:100E7800FB6903F003039B000F2202FA03F3DB4331
:100E8800BA691340BB617B68524A93422BD07B6896
:100E9800514A934225D07B68504A93421FD07B68C1
:100EA8004F4A934219D07B684E4A934213D07B68CD
:100EB8004D4A93420DD07B684C4A934207D07B68D9
:100EC8004B4A934201D107230EE008230CE0062386
:100ED8000AE0052308E0042306E0032304E00223D4
:100EE80002E0012300E00023FA6902F00302920005
:100EF8009340BA691343BB613549FB699B080233C8
:100F0800BA6941F823203B4B9B68BB613B69DB43D3
:100F1800BA691340BB613B685B6803F48013002B1C
:100F280003D0BA693B691343BB61324ABB6993601A
:100F3800304BDB68BB613B69DB43BA691340BB617B
:100F48003B685B6803F40013002B03D0BA693B6964
:100F58001343BB61274ABB69D360264B5B68BB61FF
:100F68003B69DB43BA691340BB613B685B6803F4C8
:100F78000033002B03D0BA693B691343BB611D4A98
:100F8800BB6953601B4B1B68BB613B69DB43BA6998
:100F98001340BB613B685B6803F48033002B03D0CC
:100FA800BA693B691343BB61124ABB691360FB69A9
:100FB8000133FB61FB690F2B7FF690AE00BF00BFCA
:100FC8002437BD465DF8047B704700BF00380240F7
:100FD80000380140000002400004024000080240BE
:100FE800000C0240001002400014024000180240A9
:100FF800001C0240003C014080B483B000AF786020
:101008000B467B8013467B707B78002B03D07A8855
:101018007B689A6103E07B881A047B689A6100BF49
:101028000C37BD465DF8047B7047000080B586B07C
:1010380000AF78607B68002B01D1012367E27B68F1
:101048001B6803F00103002B75D0884B9B6803F0E5
:101058000C03042B0CD0854B9B6803F00C03082B66
:1010680012D1824B5B6803F48003B3F5800F0BD178
:101078007E4B1B6803F40033002B5BD07B685B68F6
:10108800002B57D1012342E27B685B68B3F5803FB0
:1010980006D1764B1B68754A43F4803313601DE014
:1010A8007B685B68B3F5A02F0CD1704B1B686F4A47
:1010B80043F4802313606D4B1B686C4A43F4803300
:1010C80013600BE0694B1B68684A23F48033136094
:1010D800664B1B68654A23F4802313607B685B6852
:1010E800002B13D0FFF7AAFC386108E0FFF7A6FC35
:1010F80002463B69D31A642B01D9032307E25B4BF1
:101108001B6803F40033002BF0D014E0FFF796FCC3
:10111800386108E0FFF792FC02463B69D31A642B5A
:1011280001D90323F3E1514B1B6803F40033002B6F
:10113800F0D100E000BF7B681B6803F00203002BBE
:1011480063D04A4B9B6803F00C03002B0BD0474B32
:101158009B6803F00C03082B1CD1444B5B6803F419
:101168008003002B16D1414B1B6803F00203002BB0
:1011780005D07B68DB68012B01D00123C7E13B4B1D
:101188001B6823F0F8027B681B69DB0037491343AF
:101198000B603AE07B68DB68002B20D0344B0122DF
:1011A8001A60FFF74BFC386108E0FFF747FC02467E
:1011B8003B69D31A022B01D90323A8E12B4B1B68E7
:1011C80003F00203002BF0D0284B1B6823F0F80231
:1011D8007B681B69DB00254913430B6015E0244B32
:1011E80000221A60FFF72AFC386108E0FFF726FCA6
:1011F80002463B69D31A022B01D9032387E11B4B13
:101208001B6803F00203002BF0D17B681B6803F016
:101218000803002B36D07B685B69002B16D0154B72
:1012280001221A60FFF70AFC386108E0FFF706FCA4
:1012380002463B69D31A022B01D9032367E10B4B02
:101248005B6F03F00203002BF0D01BE0094B002278
:101258001A60FFF7F3FB38610EE0FFF7EFFB024679
:101268003B69D31A022B07D9032350E10038024007
:1012780000004742800E4742884B5B6F03F0020331
:10128800002BEAD17B681B6803F00403002B00F0F5
:1012980097800023FB75814B1B6C03F08053002B58
:1012A8000FD10023BB607D4B1B6C7C4A43F08053FD
:1012B80013647A4B1B6C03F08053BB60BB6801233B
:1012C800FB75774B1B6803F48073002B18D1744BA4
:1012D8001B68734A43F480731360FFF7AFFB3861F0
:1012E80008E0FFF7ABFB02463B69D31A022B01D992
:1012F80003230CE16A4B1B6803F48073002BF0D0C6
:101308007B689B68012B06D1644B1B6F634A43F0D3
:10131800010313671CE07B689B68052B0CD15F4BAE
:101328001B6F5E4A43F0040313675C4B1B6F5B4AF9
:1013380043F0010313670BE0584B1B6F574A23F028
:1013480001031367554B1B6F544A23F004031367BB
:101358007B689B68002B15D0FFF770FB38610AE0AB
:10136800FFF76CFB02463B69D31A41F2883293427D
:1013780001D90323CBE0494B1B6F03F00203002B79
:10138800EED014E0FFF75AFB38610AE0FFF756FB8E
:1013980002463B69D31A41F28832934201D90323AA
:1013A800B5E03E4B1B6F03F00203002BEED1FB7D33
:1013B800012B05D1394B1B6C384A23F08053136439
:1013C8007B689B69002B00F0A180344B9B6803F07D
:1013D8000C03082B5CD07B689B69022B41D1314BF5
:1013E80000221A60FFF72AFB386108E0FFF726FBA6
:1013F80002463B69D31A022B01D9032387E0274B06
:101408001B6803F00073002BF0D17B68DA697B68F6
:101418001B6A1A437B685B6A9B011A437B689B6A59
:101428005B08013B1B041A437B68DB6A1B061B49EC
:1014380013434B601B4B01221A60FFF7FFFA386118
:1014480008E0FFF7FBFA02463B69D31A022B01D9E1
:1014580003235CE0114B1B6803F00073002BF0D0F2
:1014680054E0104B00221A60FFF7E8FA386108E0F0
:10147800FFF7E4FA02463B69D31A022B01D903238A
:1014880045E0064B1B6803F00073002BF0D13DE0EC
:101498007B689B69012B07D1012338E000380240A3
:1014A80000700040600047421B4B5B68FB607B6834
:1014B8009B69012B28D0FB6803F480027B68DB69F9
:1014C8009A4221D1FB6803F03F027B681B6A9A426B
:1014D8001AD1FA6847F6C07313407A68526A9201C3
:1014E800934211D1FB6803F440327B689B6A5B0826
:1014F800013B1B049A4207D1FB6803F070627B68CA
:10150800DB6A1B069A4201D0012300E0002318463B
:101518001837BD4680BD00BF0038024080B584B092
:1015280000AF786039607B68002B01D10123CCE0E3
:10153800684B1B6803F007033A689A420CD9654B5D
:101548003A68D2B21A70634B1B6803F007033A6813
:101558009A4201D00123B8E07B681B6803F00203BC
:10156800002B20D07B681B6803F00403002B05D0F8
:10157800594B9B68584A43F4E05393607B681B6857
:1015880003F00803002B05D0534B9B68524A43F4E1
:1015980060439360504B9B6823F0F0027B689B6824
:1015A8004D4913438B607B681B6803F00103002BD4
:1015B80044D07B685B68012B07D1474B1B6803F459
:1015C8000033002B19D101237FE07B685B68022B75
:1015D80003D07B685B68032B07D13F4B1B6803F084
:1015E8000073002B09D101236FE03B4B1B6803F00C
:1015F8000203002B01D1012367E0374B9B6823F0DE
:1016080003027B685B68344913438B60FFF716FA63
:10161800F8600AE0FFF712FA0246FB68D31A41F2B3
:101628008832934201D903234FE02B4B9B6803F088
:101638000C027B685B689B009A42EBD1254B1B68C8
:1016480003F007033A689A420CD2224B3A68D2B2A6
:101658001A70204B1B6803F007033A689A4201D0BE
:10166800012332E07B681B6803F00403002B08D0D9
:10167800194B9B6823F4E0527B68DB6816491343D7
:101688008B607B681B6803F00803002B09D0124BA2
:101698009B6823F460427B681B69DB000E49134397
:1016A8008B6000F021F802460B4B9B681B0903F086
:1016B8000F030A49CB5C22FA03F3094A1360094B6A
:1016C8001B681846FFF776F9002318461037BD4601
:1016D80080BD00BF003C024000380240802C00085A
:1016E80000000020040000202DE9B04F94B000AFA6
:1016F80000237B640023FB6400233B640023BB645A
:10170800794B9B6803F00C03082B0DD0082B00F2D3
:10171800E180002B02D0042B03D0DBE0734BBB64C9
:10172800DBE0734BBB64D8E06F4B5B6803F03F03AF
:101738007B646D4B5B6803F48003002B63D06A4BBA
:101748005B689B090022BB63FA63BB6BC3F30803A6
:101758003B6300237B63D7E90C4522462B464FF0B9
:1017680000004FF00001590141EAD26150010246E0
:101778000B462146511A3961294663EB01037B6107
:101788004FF000024FF00003D7E904AB59468B0134
:10179800514643EA916351468A015146B2EB01082A
:1017A800594663EB01094FF000024FF000034FEA7E
:1017B800C90343EA58734FEAC8029046994623463C
:1017C80018EB0303BB602B4649EB0303FB604FF0A8
:1017D80000024FF00003D7E9024529464B02214693
:1017E80043EAD15321464A02104619467B6C00222F
:1017F800BB62FA62D7E90A23FEF7ECFC02460B4605
:101808001346FB6458E0384B5B689B090022184676
:101818001146C0F308033B6200237B62D7E90889BD
:1018280042464B464FF000004FF00001590141EA93
:10183800D261500102460B464146B2EB010A4946C5
:1018480063EB010B4FF000024FF000034FEA8B13DC
:1018580043EA9A634FEA8A12B2EB0A0463EB0B0578
:101868004FF000024FF00003EB0043EA5473E2002C
:1018780014461D464346E3183B604B4645EB0303BD
:101888007B604FF000024FF00003D7E9004529467E
:101898008B02214643EA915321468A021046194693
:1018A8007B6C0022BB61FA61D7E90623FEF792FC44
:1018B80002460B461346FB640B4B5B681B0C03F09C
:1018C800030301335B003B64FA6C3B6CB2FBF3F33C
:1018D800BB6402E0054BBB6400BFBB6C18465037C5
:1018E800BD46BDE8B08F00BF003802400024F400B8
:1018F80000127A0080B584B000AFF860B9603B6030
:101908001346FB8024493868FEF75AFC0346002B2F
:1019180006D1FB68BA681A60FB68FA889A8236E0D2
:101928001E493868FEF74CFC0346002B06D1FB68BD
:10193800BA685A60FB68FA88DA8228E01849386879
:10194800FEF73EFC0346002B06D1FB68BA689A6096
:10195800FB68FA881A831AE012493868FEF730FCE7
:101968000346002B06D1FB68BA68DA60FB68FA8880
:101978005A830CE00C493868FEF722FC0346002B1A
:1019880005D1FB68BA681A61FB68FA889A8300BFB8
:101998001037BD4680BD00BF4C2C0008502C0008F5
:1019A800542C0008582C00085C2C000880B582B024
:1019B80000AF78607B6818687B689B8A00221946AC
:1019C800FFF71AFB7B6818687B689B8A0122194617
:1019D800FFF712FB7B6893F820301A4621217868BC
:1019E80000F0A3FA7B6893F820301A46B82178688B
:1019F80000F09BFA7B6893F820301A460421786837
:101A080000F093FA7B6893F820301A461221786820
:101A180000F08BFA7B6893F820301A46202178680A
:101A280000F083FA7B6893F828127B6893F82030DB
:101A38001A46786800F079FA786800F008F87B6848
:101A4800002283F8242200BF0837BD4680BD80B538
:101A580084B000AF78600023FB81FB89B3F5FC7F7D
:101A680011D27B6893F821301A460021786800F07B
:101A78005CFAFB897A681344002283F82220FB89E8
:101A88000133FB81E9E700BF1037BD4680BD80B553
:101A980082B000AF78600B46FB701346BB707B6862
:101AA80093F82522BB781343D9B27B6893F820308A
:101AB8001A46786800F039FA7B6893F82622FB7892
:101AC8001343D9B27B6893F820301A46786800F03F
:101AD8002CFAFA787B68C3F81C22BA787B68C3F8BA
:101AE800202200BF0837BD4680BD80B48BB000AF50
:101AF800F860B9603B601346FB7197F83430013BDE
:101B08007B6200233B6297F834303A6A9A4280F24B
:101B1800CA800023FB750723FB61FB69002B1BDBD5
:101B2800FA79FB6942FA03F303F00103002B0FD0A3
:101B3800FB69DBB2FB750122FB6902FA03F35BB2B6
:101B4800DB435AB297F9073013405BB2FB7103E0ED
:101B5800FB69013BFB61E0E70023BB61BA693B6BB2
:101B68009A4280F29980FB6893F82432002B2FD098
:101B780097F83830002B2BD0FB7DD8B2024654237F
:101B880003FB02F2BB681A44BB691344FA681344A6
:101B980093F822305AB27B6A396B03FB01F1BB69B7
:101BA8000B4419463B680B441B785BB2DB435BB2C2
:101BB80013435BB2D9B20246542303FB02F2BB685B
:101BC8001A44BB691344FA6813440A4683F822206E
:101BD800FB6893F82432002B33D097F8383083F021
:101BE8000103DBB2002B2CD0FB7DD8B20246542374
:101BF80003FB02F2BB681A44BB691344FA68134436
:101C080093F822305AB27B6A396B03FB01F1BB6946
:101C18000B4419463B680B441B785BB2DB435BB251
:101C280013405BB2D9B20246542303FB02F2BB68ED
:101C38001A44BB691344FA6813440A4683F82220FD
:101C480026E0FB7DD8B20246542303FB02F2BB68B0
:101C58001A44BB691344FA68134493F822207B6A38
:101C6800396B03FB01F1BB690B4419463B680B4414
:101C78001B781343D9B20246542303FB02F2BB6814
:101C88001A44BB691344FA6813440A4683F82220AD
:101C9800BB690133BB6161E77B6A013B7B623B6ADD
:101CA80001333B622FE700BF2C37BD465DF8047B4C
:101CB800704780B48BB000AFF860B9603B601346E2
:101CC800FB7197F83030002B29D100237B62FB7918
:101CD8007A6A9A4280F2AA8000233B6297F83430ED
:101CE8003A6A9A4217DAFB793A6A03FB02F27B6A8C
:101CF80013441A46BB681A44FB79396A03FB01F19D
:101D08007B6A0B4419463B680B4412781A703B6A8D
:101D180001333B62E2E77B6A01337B62D7E797F8DE
:101D28003430012B6AD00023FB61FB79FA699A42AF
:101D38007EDA97F83430013BBB61BB69002B59DD73
:101D4800FB79BA6903FB02F2FB6913441A463B6844
:101D580013441B785AB2BB69013BF97903FB01F1C3
:101D6800FB690B441946BB680B441B78194697F866
:101D78003030C3F1080341FA03F35BB2134359B29D
:101D8800FB79BA6903FB02F2FB6913441A463B6804
:101D98001344CAB21A70BB69013BFA7903FB02F219
:101DA800FB6913441A463B6813441B785AB2BB6953
:101DB800013BF97903FB01F1FB690B441946BB6848
:101DC8000B441B78194697F8303001FA03F35BB2DD
:101DD800134359B2BB69013BFA7903FB02F2FB6971
:101DE80013441A463B681344CAB21A70BB69013BD4
:101DF800BB61A2E7FB690133FB6196E700237B61C6
:101E0800FB797A699A4215DA7B69BA6813441B78B8
:101E18001A4697F8303042FA03F17B693A6813445E
:101E2800CAB21A707B6901337B61E9E700BF02E03F
:101E380000BF00E000BF2C37BD465DF8047B70474B
:101E480080B584B000AF78607B6893F826127B6811
:101E580093F825321A467868FFF719FE0023FB60CD
:101E6800FB68052B1DDC0023BB60BB68532B14DC0F
:101E7800FB68542203FB02F2BB6813447A681344DC
:101E880093F822107B6893F821301A46786800F09E
:101E98004CF8BB680133BB60E7E7FB680133FB60C4
:101EA800DEE700BF1037BD4680BD80B483B000AF09
:101EB80078600B46FB707B68FA7883F8242200BFB1
:101EC8000C37BD465DF8047B704780B584B000AF21
:101ED80078600B46FB700023FB60FB68072B20DC57
:101EE8007B68D8687B68598BFB78DB09DBB21A46BC
:101EF800FFF782F87B6818697B689B8B002219467C
:101F0800FFF77AF87B6818697B689B8B0122194672
:101F1800FFF772F8FB785B00FB70FB680133FB602E
:101F2800DBE700BF1037BD4680BD80B582B000AF8B
:101F380078600B46FB701346BB707B6893F82030C3
:101F4800BA789A421DD17B6898687B681B8B0022FF
:101F58001946FFF751F87B6858687B68DB8A0022CE
:101F68001946FFF749F8FB7819467868FFF7ADFF7F
:101F78007B6858687B68DB8A01221946FFF73CF8C2
:101F880022E07B6893F82130BA789A421CD17B68AA
:101F980098687B681B8B01221946FFF72DF87B6830
:101FA80058687B68DB8A00221946FFF725F8FB781A
:101FB80019467868FFF789FF7B6858687B68DB8A71
:101FC80001221946FFF718F800BF0837BD4680BD43
:101FD80080B485B000AF78600B46FB700023FB73BC
:101FE8000023BB60BB68072B0EDCFA78BB6842FA9B
:101FF80003F303F00103002B02D0FB7B0133FB73D7
:10200800BB680133BB60EDE7FB7B18461437BD4660
:102018005DF8047B704780B487B000AF78600B46EA
:10202800FB701346BB700023FB7300237B617B6945
:102038002F2B39DC7B69DA1DFB789A4213DBFB789E
:102048007A699A420FDC7B69002B00DA0733DB10D0
:102058001A46012393405AB2FB7BDBB25BB21343AF
:102068005BB2DBB2FB73FA78BB781A447B6908333E
:102078009A4215DCFA78BB7813447A699A420FDCE5
:102088007B69002B00DA0733DB101A4601239340E3
:102098005AB2FB7BDBB25BB213435BB2DBB2FB73BE
:1020A8007B6908337B61C2E7FB78DB08DBB201336D
:1020B8003B61FA78BB781344013B002B00DA073305
:1020C800DB101A463B6993420FDA01223B6902FA98
:1020D80003F35AB2FB7BDBB25BB213435BB2DBB2F6
:1020E800FB733B6901333B61E3E7FB7BDBB21846DB
:1020F8001C37BD465DF8047B704780B582B000AFE1
:1021080078607B68002283F820207B68012283F8AE
:1021180021207B6822334FF4FC720021184600F01E
:102128007DFD7B680022C3F81C227B680022C3F86F
:1021380020227B68002283F824227B68402283F8CF
:1021480025227B68802283F826227B68082283F870
:1021580027227B680C2283F828227B68092283F8CF
:1021680029227B680D2283F82A227B6818460837C3
:10217800BD4680BD90B5ADF5017D7EAF78607B68CA
:10218800042B00F22B8101A252F823F0A9210008A8
:10219800D521000859220008DD2200086123000823
:1021A8009048FFF754FC904C00237D9300237C93C8
:1021B800684604F10C034FF4F772194600F020FD4D
:1021C80094E80E00874800F0BAF907E18548FFF760
:1021D8003EFC864C00237D9300237C93684604F1E3
:1021E8000C034FF4F772194600F00AFD94E80E004C
:1021F8007C4800F0A4F97E4B142202920622019238
:102208001A7B8DF800200ECB764800F01BFA794B2C
:102218000093142314227849724800F0B0FA01217F
:102228007048FFF742FE754B009306231522744948
:102238006C4800F063FB714B00932423152271490D
:10224800684800F05BFB00216648FFF72EFEC5E0FA
:102258006448FFF7FCFB654C00237D9300237C93C7
:10226800684604F10C034FF4F772194600F0C8FCF5
:1022780094E80E005B4800F062F95D4B142202926C
:10228800062201921A7B8DF800200ECB554800F0EB
:10229800D9F9584B0093142314225949514800F096
:1022A8006EFA01214F48FFF700FE544B00930623B6
:1022B800152255494B4800F021FB504B009324232D
:1022C80015224D49474800F019FB00214548FFF702
:1022D800ECFD83E04348FFF7BAFB444C00237D93B1
:1022E80000237C93684604F10C034FF4F7721946F7
:1022F80000F086FC94E80E003A4800F020F93C4BC8
:1023080014220292062201921A7B8DF800200ECB2D
:10231800344800F097F9374B0093142314223A49B4
:10232800304800F02CFA01212E48FFF7BEFD334B50
:1023380000930623152233492A4800F0DFFA2F4B71
:102348000093242315222E49264800F0D7FA0021AD
:102358002448FFF7AAFD41E02248FFF778FB234C09
:1023680000237D9300237C93684604F10C034FF40B
:10237800F772194600F044FC94E80E00194800F082
:10238800DEF81B4B14220292062201921A7B8DF86A
:1023980000200ECB134800F055F9164B0093142378
:1023A800142218490F4800F0EAF901210D48FFF7F7
:1023B8007CFD124B0093062315220F49094800F0B3
:1023C8009DFA0E4B0093242315220F49054800F06F
:1023D80095FA00210348FFF768FD00BF00BF0C37DE
:1023E800BD4690BD30080020340600203804002087
:1023F80028040020682E0008602C0008902C000893
:10240800682C0008702C0008782C000880B500AFF4
:10241800284B4FF4804228492848FFF76BFA284B8D
:102428004FF4005224492548FFF764FA254B4FF42E
:10243800805221492148FFF75DFA234B4FF480620F
:102448001D491E48FFF756FA204B4FF400621A49FF
:102458001A48FFF74FFA1948FFF7A8FA0020FFF7C4
:1024680089FE4FF4FA60FEF7F5FA0120FFF782FEC5
:102478004FF4FA60FEF7EEFA0220FFF77BFE4FF406
:10248800FA60FEF7E7FA0320FFF774FE4FF4FA60EC
:10249800FEF7E0FA0420FFF76DFE4FF4FA60FEF74E
:1024A800D9FA0120FFF766FE4FF4FA60FEF7D2FA78
:1024B800D4E700BF4C2C000800040240300800207C
:1024C800502C0008542C0008582C00085C2C0008DC
:1024D80080B584B000AFF8607B600B46FB72134692
:1024E800BB72FB68FA7A1A70FB68BA7A5A70FB6892
:1024F80002330B227968184600F082FBFB68184605
:102508001037BD4680BD80B584B000AFF8607B60F1
:102518000B46FB721346BB72FB68FA7A1A70FB68AB
:10252800BA7A5A70FB6802334FF4FC72796818461D
:1025380000F066FBFB6818461037BD4680BD84B0C6
:102548002DE9F0438BB004AF786007F13C0080E8D8
:102558000E006B461E4697F83C3203F00703FB75E6
:1025680097F83D2097F83C3219467868FFF753FDF5
:102578000346BB75BB7D19467868FFF729FD0346FE
:102588007B7597F83C301A467B7D02FB03F3591E96
:1025980039610B4601330022984691464FF00002FC
:1025A8004FF000034FEAC90343EA58734FEAC802E1
:1025B8000B46013300221C4615464FF000024FF02F
:1025C8000003EB0043EA5473E2000B460133073380
:1025D800DB08DB00ADEB030D04AB0033FB60FB68ED
:1025E80000221A705A1C4B1E002B04DB00211170AC
:1025F8000132013BF8E797F83C2007F13C03991CAE
:102608007B7D0193FB7D0093FB687868FFF751FBA6
:1026180097F8381297F83C301846BA7D0023029391
:102628007B7D01930090FB687868FFF75EFA786815
:10263800FFF706FCB54600BF1C37BD46BDE8F043B2
:1026480004B0704784B02DE9F0438BB004AF7860D4
:1026580007F13C0080E80E006B461E4697F85030A4
:1026680003F00703FB7597F83D2097F8503019469B
:102678007868FFF7D0FC0346BB75BB7D19467868C0
:10268800FFF7A6FC03467B7597F83C301A467B7D1E
:1026980002FB03F3591E39610B46013300229846A9
:1026A80091464FF000024FF000034FEAC90343EA96
:1026B80058734FEAC8020B46013300221C461546E0
:1026C8004FF000024FF00003EB0043EA5473E200BE
:1026D8000B4601330733DB08DB00ADEB030D04AB1E
:1026E8000033FB60FB6800221A705A1C4B1E002B3B
:1026F80004DB002111700132013BF8E797F83C2018
:1027080007F13C03991C7B7D0193FB7D0093FB68DB
:102718007868FFF7CEFA97F84C1097F83C301846CF
:10272800BA7D002302937B7D01930090FB68786853
:10273800FFF7DBF97868FFF783FBB54600BF1C3766
:10274800BD46BDE8F04304B0704780B483B000AF25
:102758007860062318460C37BD465DF8047B704741
:1027680080B582B000AF786039607B6839681846F8
:1027780000F069F9034618460837BD4680BD2DE9C3
:10278800F0438DB004AFF860B96011461A460B46A5
:10279800FB711346BB710623BB77BB681B78002B04
:1027A80000F08D806B461E46BB7903F007037B77EC
:1027B8000021386CFFF7D4FF03461846FFF7C5FF22
:1027C8000346DAB2BB791946F868FFF724FC0346DA
:1027D8003B773B7F1946F868FFF7FAFB0346FB7621
:1027E800BB7FFA7E02FB03F3591E79610B46013366
:1027F80000221C4615464FF000024FF00003EB0084
:1028080043EA5473E2000B4601330022984691468E
:102818004FF000024FF000034FEAC90343EA587330
:102828004FEAC8020B4601330733DB08DB00ADEB88
:10283800030D04AB00333B613B6900221A705A1C3C
:102848004B1E002B04DB002111700132013BF8E71D
:10285800BB681B78FB77FB7F1F2B02D9FB7F7E2B86
:1028680001D92023FB77FB7F203B1946386CFFF703
:1028780077FF0346184600F003F90146BA7FFB7E4E
:1028880001937B7F00933B69F868FFF712FAF979A7
:10289800BB7F387F00220292FA7E019200933B6947
:1028A8000246F868FFF721F9F868FFF7C9FAFB79DB
:1028B8000633FB71BB680133BB60B5466DE700BFEB
:1028C8002437BD46BDE8F08380B483B000AF78609C
:1028D800052318460C37BD465DF8047B704780B564
:1028E80082B000AF786039607B683968184600F0BC
:1028F800D4F8034618460837BD4680BD2DE9F04395
:102908008DB004AFF860B96011461A460B46FB71EA
:102918001346BB710523BB77BB681B78002B00F0FF
:102928008D806B461E46BB7903F007037B77002139
:10293800386CFFF7D4FF03461846FFF7C5FF034678
:10294800DAB2BB791946F868FFF765FB03463B77AF
:102958003B7F1946F868FFF73BFB0346FB76BB7FD6
:10296800FA7E02FB03F3591E79610B4601330022FC
:102978001C4615464FF000024FF00003EB0043EAF7
:102988005473E2000B4601330022984691464FF0FB
:1029980000024FF000034FEAC90343EA58734FEAB5
:1029A800C8020B4601330733DB08DB00ADEB030D30
:1029B80004AB00333B613B6900221A705A1C4B1E62
:1029C800002B04DB002111700132013BF8E7BB68E2
:1029D8001B78FB77FB7F1F2B02D9FB7F7E2B01D94E
:1029E8002023FB77FB7F203B1946386CFFF777FFE6
:1029F8000346184600F06DF80146BA7FFB7E019346
:102A08007B7F00933B69F868FFF753F9F979BB7F3F
:102A1800387F00220292FA7E019200933B690246B7
:102A2800F868FFF762F8F868FFF70AFAFB790533E8
:102A3800FB71BB680133BB60B5466DE700BF243747
:102A4800BD46BDE8F08380B483B000AF78603960DC
:102A58003A6813465B0013445B007A6813441846CF
:102A68000C37BD465DF8047B704780B483B000AF77
:102A780078607B6818460C37BD465DF8047B704764
:102A880080B582B000AF78607B681846FFF7EDFF2D
:102A9800034618460837BD4680BD80B483B000AFF2
:102AA800786039603A6813469B0013447A68134487
:102AB80018460C37BD465DF8047B704780B483B078
:102AC80000AF78607B6818460C37BD465DF8047B1C
:102AD800704780B582B000AF78607B681846FFF712
:102AE800EDFF034618460837BD4680BD80B582B065
:102AF80000AF786039607B68012B19D13B684FF6CD
:102B0800FF72934214D10C4B08220B210B48FFF79C
:102B1800DFFC0B4B302254210A48FFF7F4FC0A4B28
:102B2800302254210948FFF7EEFC0948FFF7E5FA7F
:102B380000BF0837BD4680BD0C00002028040020D7
:102B4800180000203804002010020020340600205D
:102B58003008002080B500AF4FF6FF710120FFF765
:102B6800C5FF80BDDFF834D00D480E490E4A00235A
:102B780002E0D458C4500433C4188C42F9D30B4A29
:102B88000B4C002301E013600432A242FBD3FDF793
:102B9800DDFE00F011F8FDF7DDFD704700000220B2
:102BA8000000002008040020BC30000808040020B1
:102BB8005C0A0020FEE7000070B50D4D0D4C641B4B
:102BC800A4100026A64209D10B4D0C4C00F02EF89B
:102BD800641BA4100026A64205D170BD55F8043B1D
:102BE80098470136EEE755F8043B98470136F2E777
:102BF800B0300008B0300008B0300008B830000825
:102C08000A44914200F1FF3300D1704710B511F822
:102C1800014B03F8014F9142F9D110BD024403461C
:102C2800934200D1704703F8011BF9E7F8B500BFDC
:102C3800F8BC08BC9E467047F8B500BFF8BC08BC95
:042C48009E467047ED
:102C4C0052535400434500004443000044494E0095
:102C5C00434C4B004F6D65720000000062656E3096
:102C6C006D657200476F6B79657200004769744837
:102C7C007562000000000000000000000102030467
:102C8C0006070809000000000000005F00000007B4
:102C9C00000700147F147F14242A7F2A12231308A0
:102CAC00646236495522500005030000001C224185
:102CBC00000041221C0014083E081408083E0808B5
:102CCC000050300000080808080800606000002070
:102CDC00100804023E5149453E00427F40004261CB
:102CEC005149462141454B311814127F1027454557
:102CFC0045393C4A4949300171090503364949496E
:102D0C0036064949291E00363600000056360000AA
:102D1C000814224100141414141400412214080243
:102D2C0001510906324979413E7E1111117E7F49CC
:102D3C004949363E414141227F4141221C7F49494C
:102D4C0049417F090909013E4149497A7F08080830
:102D5C007F00417F41002040413F017F0814224108
:102D6C007F404040407F020C027F7F0408107F3E72
:102D7C004141413E7F090909063E4151215E7F09CF
:102D8C00192946464949493101017F01013F40401B
:102D9C00403F1F2040201F3F4038403F6314081421
:102DAC006307087008076151494543007F414100A2
:102DBC0002040810200041417F000402010204407B
:102DCC0040404040000102040020545454787F4895
:102DDC004444383844444420384444487F3854549C
:102DEC005418087E0901020C5252523E7F0804040A
:102DFC007800447D40002040443D007F1028440072
:102E0C0000417F40007C041804787C080404783866
:102E1C00444444387C14141408081414187C7C089A
:102E2C000404084854545420043F4440203C40407F
:102E3C00207C1C2040201C3C4030403C4428102866
:102E4C00440C5050503C4464544C440008364100EF
:102E5C0000007F0000004136080000000000000068
:102E6C0000000000005F00000000070007000014D5
:102E7C007F147F1400242A7F2A1200231308646213
:102E8C0000364955225000000503000000001C22AA
:102E9C004100000041221C000014083E08140008E8
:102EAC00083E080800005030000000080808080818
:102EBC00000060600000002010080402003E514930
:102ECC00453E0000427F40000042615149460021CE
:102EDC0041454B31001814127F10002745454539E8
:102EEC00003C4A4949300001710905030036494943
:102EFC00493600064949291E0000363600000000FC
:102F0C005636000000081422410000141414141446
:102F1C0000004122140800020151090600324979CF
:102F2C00413E007E1111117E007F49494936003E19
:102F3C0041414122007F4141221C007F49494941C6
:102F4C00007F09090901003E4149497A007F0808C0
:102F5C00087F0000417F4100002040413F01007F7D
:102F6C0008142241007F40404040007F020C027F49
:102F7C00007F0408107F003E4141413E007F09095B
:102F8C000906003E4151215E007F09192946004681
:102F9C00494949310001017F0101003F4040403F58
:102FAC00001F2040201F003F4038403F00631408A2
:102FBC00146300070870080700615149454300007D
:102FCC007F414100000204081020000041417F00B5
:102FDC000004020102040040404040400000010295
:102FEC000400002054545478007F4844443800387E
:102FFC004444442000384444487F00385454541806
:10300C0000087E090102000C5252523E007F080457
:10301C0004780000447D4000002040443D00007FC7
:10302C00102844000000417F4000007C0418047804
:10303C00007C08040478003844444438007C1414A0
:10304C00140800081414187C007C080404080048B8
:10305C005454542000043F444020003C4040207C09
:10306C00001C2040201C003C4030403C00442810F8
:10307C002844000C5050503C004464544C44000014
:10308C00083641000000007F0000000041360800B7
:0C309C0000100808100800784641467833
:0830A80064D1FF7F010000006C
:0830B000AD0100085D2B0008D2
:0430B8008901000882
:1030BC000024F400100000000100000000081C1C9B
:1030CC005D7F7F3E1C080000F03C06C2F3F3F9F96B
:1030DC00F9F979391989193979F9F9F9F9F9F9F904
:1030EC00F9F9F9F9F9F9F9F9F9F9F9F9F9F9F9F944
:1030FC00F9F9F9F9F9F9F9F9F9F9F9F9F9F9F9F934
:10310C00F9F9F9F9F9F9F9F9F9F9F9F9F9F9F9F923
:10311C00F9F9F9F9F9F9F3F3C2063CF0FF00007F75
:10312C007F7F7F7F7F7F4C66737973664C7F7F7F59
:10313C007F7F7F7F7F7F7F7F7F7F7F7F7F7F7F7F93
:10314C007F7F7F7F7F7F7F7F7F7F7F7F7F7F7F7F83
:10315C007F7F7F7F7F7F7F7F7F7F7F7F7F7F7F7F73
:10316C007F7F7F7F7F7F7F7F7F7F7F7F7F0000FFE1
:10317C00FF00000000000000000000000000000044
:10318C000000000000000000000000000000000033
:10319C000000000000000000000000000000000023
:1031AC000000000000000000000000000000000013
:1031BC000000000000000000000000000000000003
:1031CC00000000FFFF0000000000000000000000F5
:1031DC0000000000000000000000000000000000E3
:1031EC0000000000000000000000000000000000D3
:1031FC0000000000000000000000000000000000C3
:10320C0000000000000000000000000000000000B2
:10321C0000000000000000FFFF0000FEFEFEFEFEAE
:10322C00FE3266CE9ECE6632FEFEFEFEFEFEFEFE3A
:10323C00FEFEFEFEFEFEFEFEFEFEFEFEFEFEFEFEA2
:10324C00FEFEFEFEFEFEFEFEFEFEFEFEFEFEFEFE92
:10325C00FEFEFEFEFEFEFEFEFEFEFEFEFEFEFEFE82
:10326C00FEFEFEFEFEFEFEFEFE0000FF0F3C604377
:10327C00CFCF9F9F9F9E9C9891989C9E9F9F9F9F16
:10328C009F9F9F9F9F9F9F9F9F9F9F9F9F9F9F9F42
:10329C009F9F9F9F9F9F9F9F9F9F9F9F9F9F9F9F32
:1032AC009F9F9F9F9F9F9F9F9F9F9F9F9F9F9F9F22
:1032BC009F9F9F9F9F9F9F9F9F9FCFCF43603C0F40
:1032CC00F03C06C2C383810101010101010101012E
:1032DC0001010101010101010101010101814121F2
:1032EC0021F1311101A5E9F1A5F9E1E1E1010111AA
:1032FC0031F1214141810101010101010101010172
:10330C00010101010101010101010101010103831D
:10331C0082063CF0FF0000F7F7EFEF000000000022
:10332C000000000000000000000000C040689C0687
:10333C0001C061320F132244986041C7FFFFF1C0F6
:10334C004020984422110F0E31C001068C70C080B1
:10335C000000000000000000000000000000000061
:10336C0000DFDFEFEF0000FFFF0000F3F3E7E70003
:10337C000000000000000000000000000000000140
:10338C0000000403010A040402040810204141FF58
:10339C00FFFFFFFFE141201008040204070B0101AD
:1033AC000000000000000000000000000000000011
:1033BC000000000000CFCFE7E70000FFFF00008F08
:1033CC008F1F1F0000000000000000000000000024
:1033DC000000000000000000000000000000204081
:1033EC007E1F0303071F7FFFF3C3031F7F402000D3
:1033FC0000000000000000000000000000000000C1
:10340C000000000000000000003F3F1F1F0000FFF5
:10341C00FF0000FFFFFFFF00000000000000008025
:10342C008080000080800000000000000000800010
:10343C00000080000000808080008081070F9F18B2
:10344C003030A010880400000000000000808000D4
:10345C0000808080000000000000000000FEFEFFE5
:10346C00FF0000FF0F3C6041C1C3838080808080DF
:10347C00848E9FBBB1A48E9BB1A080808080808005
:10348C00809FBF878E87BF9F809FBFB5B5809FBF32
:10349C00879CBFBF809FBFB8BF9F8080808080808B
:1034AC0080A0B19B8EA4B1BB9F8E848080808080D5
:0834BC008087C7C343603C0F89
:0400000508002B6D57
:00000001FF
